{
    "contractName": "Proyecto",
    "abi": [
        {
            "inputs": [
                {
                    "internalType": "address",
                    "name": "_comprador",
                    "type": "address"
                },
                {
                    "internalType": "address",
                    "name": "_vendedor",
                    "type": "address"
                },
                {
                    "internalType": "address",
                    "name": "_arbitro",
                    "type": "address"
                },
                {
                    "internalType": "uint256",
                    "name": "_monto",
                    "type": "uint256"
                }
            ],
            "stateMutability": "nonpayable",
            "type": "constructor"
        },
        {
            "anonymous": false,
            "inputs": [
                {
                    "indexed": true,
                    "internalType": "address",
                    "name": "previousOwner",
                    "type": "address"
                },
                {
                    "indexed": true,
                    "internalType": "address",
                    "name": "newOwner",
                    "type": "address"
                }
            ],
            "name": "OwnershipTransferred",
            "type": "event"
        },
        {
            "inputs": [],
            "name": "arbitro",
            "outputs": [
                {
                    "internalType": "address",
                    "name": "",
                    "type": "address"
                }
            ],
            "stateMutability": "view",
            "type": "function"
        },
        {
            "inputs": [],
            "name": "comprador",
            "outputs": [
                {
                    "internalType": "address",
                    "name": "",
                    "type": "address"
                }
            ],
            "stateMutability": "view",
            "type": "function"
        },
        {
            "inputs": [],
            "name": "compradorConfirmaOk",
            "outputs": [],
            "stateMutability": "nonpayable",
            "type": "function"
        },
        {
            "inputs": [],
            "name": "compradorOk",
            "outputs": [
                {
                    "internalType": "bool",
                    "name": "",
                    "type": "bool"
                }
            ],
            "stateMutability": "view",
            "type": "function"
        },
        {
            "inputs": [],
            "name": "depositoOk",
            "outputs": [
                {
                    "internalType": "bool",
                    "name": "",
                    "type": "bool"
                }
            ],
            "stateMutability": "view",
            "type": "function"
        },
        {
            "inputs": [],
            "name": "depositoPago",
            "outputs": [],
            "stateMutability": "payable",
            "type": "function"
        },
        {
            "inputs": [],
            "name": "montoPago",
            "outputs": [
                {
                    "internalType": "uint256",
                    "name": "",
                    "type": "uint256"
                }
            ],
            "stateMutability": "view",
            "type": "function"
        },
        {
            "inputs": [],
            "name": "owner",
            "outputs": [
                {
                    "internalType": "address",
                    "name": "",
                    "type": "address"
                }
            ],
            "stateMutability": "view",
            "type": "function"
        },
        {
            "inputs": [],
            "name": "pagarPorArbitro",
            "outputs": [],
            "stateMutability": "nonpayable",
            "type": "function"
        },
        {
            "inputs": [],
            "name": "pagoOk",
            "outputs": [
                {
                    "internalType": "bool",
                    "name": "",
                    "type": "bool"
                }
            ],
            "stateMutability": "view",
            "type": "function"
        },
        {
            "inputs": [],
            "name": "renounceOwnership",
            "outputs": [],
            "stateMutability": "nonpayable",
            "type": "function"
        },
        {
            "inputs": [],
            "name": "retiraPago",
            "outputs": [],
            "stateMutability": "nonpayable",
            "type": "function"
        },
        {
            "inputs": [
                {
                    "internalType": "address",
                    "name": "newOwner",
                    "type": "address"
                }
            ],
            "name": "transferOwnership",
            "outputs": [],
            "stateMutability": "nonpayable",
            "type": "function"
        },
        {
            "inputs": [],
            "name": "vendedor",
            "outputs": [
                {
                    "internalType": "address",
                    "name": "",
                    "type": "address"
                }
            ],
            "stateMutability": "view",
            "type": "function"
        }
    ],
    "bytecode": "608060405234801561001057600080fd5b506040516106ef3803806106ef83398101604081905261002f916100ad565b61003833610041565b505050506100f8565b600080546001600160a01b038381166001600160a01b0319831681178455604051919092169283917f8be0079c531659141344cd1fd0a4f28419497f9722a3daafe3b4186f6b6457e09190a35050565b80516001600160a01b03811681146100a857600080fd5b919050565b600080600080608085870312156100c357600080fd5b6100cc85610091565b93506100da60208601610091565b92506100e860408601610091565b6060959095015193969295505050565b6105e8806101076000396000f3fe6080604052600436106100dd5760003560e01c80638da5cb5b1161007f578063cf7bd80711610059578063cf7bd80714610227578063e0673d111461023c578063e961687d1461025d578063f2fde38b1461027257600080fd5b80638da5cb5b146101d45780639391c054146101f257806399674d041461021257600080fd5b80633182237f116100bb5780633182237f146101715780636e53ed7114610191578063715018a61461019b57806389b5ee34146101b057600080fd5b80630f50b6e7146100e257806326cee1e51461011f57806329c51f0414610150575b600080fd5b3480156100ee57600080fd5b50600154610102906001600160a01b031681565b6040516001600160a01b0390911681526020015b60405180910390f35b34801561012b57600080fd5b5060035461014090600160b01b900460ff1681565b6040519015158152602001610116565b34801561015c57600080fd5b5060035461014090600160a81b900460ff1681565b34801561017d57600080fd5b50600254610102906001600160a01b031681565b610199610292565b005b3480156101a757600080fd5b5061019961034c565b3480156101bc57600080fd5b506101c660045481565b604051908152602001610116565b3480156101e057600080fd5b506000546001600160a01b0316610102565b3480156101fe57600080fd5b50600354610102906001600160a01b031681565b34801561021e57600080fd5b50610199610382565b34801561023357600080fd5b506101996103d4565b34801561024857600080fd5b5060035461014090600160a01b900460ff1681565b34801561026957600080fd5b50610199610438565b34801561027e57600080fd5b5061019961028d36600461054d565b610462565b6001546001600160a01b031633146102e65760405162461bcd60e51b815260206004820152601260248201527127379032b99032b61031b7b6b83930b237b960711b60448201526064015b60405180910390fd5b60045434146103375760405162461bcd60e51b815260206004820152601960248201527f4e6f20657320656c20696d706f72746520636f72726563746f0000000000000060448201526064016102dd565b6003805460ff60a01b1916600160a01b179055565b6000546001600160a01b031633146103765760405162461bcd60e51b81526004016102dd9061057d565b61038060006104fd565b565b6002546004546040516001600160a01b039092169181156108fc0291906000818181858888f193505050501580156103be573d6000803e3d6000fd5b506003805460ff60b01b1916600160b01b179055565b6001546001600160a01b031633146104235760405162461bcd60e51b815260206004820152601260248201527127379032b99032b61031b7b6b83930b237b960711b60448201526064016102dd565b6003805460ff60a81b1916600160a81b179055565b6000546001600160a01b031633146103825760405162461bcd60e51b81526004016102dd9061057d565b6000546001600160a01b0316331461048c5760405162461bcd60e51b81526004016102dd9061057d565b6001600160a01b0381166104f15760405162461bcd60e51b815260206004820152602660248201527f4f776e61626c653a206e6577206f776e657220697320746865207a65726f206160448201526564647265737360d01b60648201526084016102dd565b6104fa816104fd565b50565b600080546001600160a01b038381166001600160a01b0319831681178455604051919092169283917f8be0079c531659141344cd1fd0a4f28419497f9722a3daafe3b4186f6b6457e09190a35050565b60006020828403121561055f57600080fd5b81356001600160a01b038116811461057657600080fd5b9392505050565b6020808252818101527f4f776e61626c653a2063616c6c6572206973206e6f7420746865206f776e657260408201526060019056fea26469706673582212209d4431889474547cb0d49e7d6b953af20af9b3617f58f4eedf2fd2462fecbc0a64736f6c634300080e0033",
    "sourcePath": "/home/mpereyra/Celo/platzi/celo01.sol",
    "compiler": {
        "name": "solc",
        "version": "0.8.14+commit.80d49f37"
    },
    "functionHashes": {
        "arbitro()": "9391c054",
        "comprador()": "0f50b6e7",
        "compradorConfirmaOk()": "cf7bd807",
        "compradorOk()": "29c51f04",
        "depositoOk()": "e0673d11",
        "depositoPago()": "6e53ed71",
        "montoPago()": "89b5ee34",
        "owner()": "8da5cb5b",
        "pagarPorArbitro()": "e961687d",
        "pagoOk()": "26cee1e5",
        "renounceOwnership()": "715018a6",
        "retiraPago()": "99674d04",
        "transferOwnership(address)": "f2fde38b",
        "vendedor()": "3182237f"
    },
    "gasEstimates": {
        "creation": {
            "codeDepositCost": "302400",
            "executionCost": "infinite",
            "totalCost": "infinite"
        },
        "external": {
            "arbitro()": "2371",
            "comprador()": "2350",
            "compradorConfirmaOk()": "26542",
            "compradorOk()": "2395",
            "depositoOk()": "2371",
            "depositoPago()": "28663",
            "montoPago()": "2384",
            "owner()": "2343",
            "pagarPorArbitro()": "infinite",
            "pagoOk()": "2373",
            "renounceOwnership()": "28181",
            "retiraPago()": "infinite",
            "transferOwnership(address)": "28362",
            "vendedor()": "2349"
        }
    }
}